:020000040800F2
:10000000300C002065010008190E0008B50D00082D
:1000100000000000000000000000000000000000E0
:100020000000000000000000000000008F01000838
:10003000000000000000000091010008930100088A
:100040009501000895010008950100089501000838
:1000500095010008910B0008930B0008950B000810
:100060009501000895010008950100089501000818
:10007000B3030008950100089501000875110008F8
:100080007911000895010008950100089501000804
:1000900095010008950100089501000895010008E8
:1000A0009501000895010008950100083914000821
:1000B0005D150008950100086D0B0008950100080A
:1000C00000F002F800F03EF80CA030C80838241800
:1000D0002D18A246671EAB4654465D46AC4201D180
:1000E00000F030F87E460F3E0FCCB6460126334274
:1000F00000D0FB1AA246AB4633431847681D0000E8
:10010000881D0000103A02D378C878C1FAD8520787
:1001100001D330C830C101D504680C6070470000BD
:100120000023002400250026103A01D378C1FBD813
:10013000520700D330C100D50B6070471FB51FBDFB
:1001400010B510BD00F003F91146FFF7F7FF01F0FD
:1001500083FC00F01BF903B4FFF7F2FF03BC00F0CF
:1001600021F900000F4880F308880F480168090E44
:100170000E4A914205D10E480E4901600E480F49C2
:1001800001600F4880470F480047FEE7FEE7FEE7A3
:10019000FEE7FEE7FEE700000B480C490C4A0D4B5A
:1001A00070470000300C0020040000001F00000019
:1001B0001810024001000000000001400000000093
:1001C000ED100008C100000830060020300C0020AF
:1001D00030080020300800208178C27803780904B4
:1001E0001206114342781002184308437047002258
:1001F00003098B422CD3030A8B4211D300239C4664
:100200004EE003460B433CD4002243088B4231D3DB
:1002100003098B421CD3030A8B4201D394463FE06F
:10022000C3098B4201D3CB01C01A524183098B42CF
:1002300001D38B01C01A524143098B4201D34B01B8
:10024000C01A524103098B4201D30B01C01A52411B
:10025000C3088B4201D3CB00C01A524183088B42A2
:1002600001D38B00C01A524143088B4201D34B008B
:10027000C01A5241411A00D20146524110467047FD
:100280005DE0CA0F00D04942031000D34042534002
:1002900000229C4603098B422DD3030A8B4212D3C2
:1002A000FC22890112BA030A8B420CD389019211F4
:1002B0008B4208D3890192118B4204D389013AD031
:1002C000921100E08909C3098B4201D3CB01C01A06
:1002D000524183098B4201D38B01C01A5241430919
:1002E0008B4201D34B01C01A524103098B4201D307
:1002F0000B01C01A5241C3088B4201D3CB00C01A74
:10030000524183088B4201D38B00C01A5241D9D28B
:1003100043088B4201D34B00C01A5241411A00D20C
:100320000146634652415B10104601D34042002B08
:1003300000D54942704763465B1000D3404201B587
:100340000020C046C04602BD7047704770477546E2
:1003500000F024F8AE46050069465346C008C000C8
:10036000854618B020B5FFF717FF60BC0027490885
:10037000B6460026C0C5C0C5C0C5C0C5C0C5C0C53D
:10038000C0C5C0C5403D49008D46704710B5044604
:10039000C046C0462046FFF7DEFE10BD004870474D
:1003A000CC05002001491820ABBEFEE72600020064
:1003B0007047704770B588B000F06CF9174E304642
:1003C00000F02EF8684600F03DFB0024684684717A
:1003D0000125C571057245728472C4728470C5703E
:1003E00007210171062141710321018069463046D0
:1003F00000F0F6F968468475C47505768481C48179
:10040000048244828482457603A800F0E5F8012244
:100410000221304600F0DCF908B070BD00640040F5
:1004200010B501214C06204600F044FD0021204675
:1004300000F040FD10BD0000F8B55C4800240178D4
:10044000012973D105462879801E81B2584800F0F1
:100450005DFB5848008868612969814267D1544929
:10046000891E0879CA7800024D798018012180B26E
:10047000C903884201D100204BE04F4988422DD169
:100480004E4F00213E464E4800F095FE00F0ECFB3A
:100490000025304600F080FB042801D1641CE4B242
:1004A000012080026D1C3618EDB2402DF1D300F012
:1004B000A3FB0121424800F07EFE402C05D0FF2026
:1004C00000F096FA3F48076067E0002000F090FADD
:1004D0003C483D490760012008705EE03649491CF0
:1004E00088420CD1002000F083FA384901200870BE
:1004F000354800210170642001F0A1FA4DE0344933
:1005000040183449884203D82F480078012803D086
:10051000FF2000F06DFA40E00021294800F04BFE7A
:10052000A80800902748002506681FE03AE03AE056
:100530001F48A900801E0918487A0A7A000280180C
:10054000CA790002801889790002471800F08CFBF4
:100550003946304600F058FB074600F04DFB241D9D
:10056000361DE4B2042F06D16D1CEDB20098854211
:10057000DED3042F06D0FF2000F03AFA11490F48CD
:10058000086006E0002000F033FA0E4801680919FF
:10059000016001210A4800F00EFE044800210170AC
:1005A00041700171F8BD5A20B3E70000000000203F
:1005B0003A020020540000200180000000400008A2
:1005C00000040040640000204F0000204E00002086
:1005D000FF6FFFFFFE0F000070B50446817A012017
:1005E00005462B4E8D40316801433160F069A843C8
:1005F000F061207B002812D1F068A843F060E08809
:10060000618800040843A17AC90089190864A08898
:10061000218800040843A17AC90089194864207B15
:10062000012814D1F0682843F0602046FFF7D4FD7C
:100630001021C841A17AC90089190864201DFFF75B
:10064000CBFD1021C841A17AC90089194864E07A1C
:100650000028706805D0284370602089002802D0E7
:1006600004E0A843F8E77069A84370612089012875
:1006700002D1706928437061607B012802D1F06962
:100680002843F061306840084000306070BD0000D1
:1006900000660040FEB50121880400F0E7FB01215F
:1006A000480600F0FBFB1A4F04220821384600F0F0
:1006B0006DFB04220921384600F068FBFF20013061
:1006C00000900224684604710126C67169463846C6
:1006D00000F024FB2002009068460471002484711D
:1006E00003254571C4716946384600F017FB202088
:1006F00000906846067184714571C4716946384638
:1007000000F00CFB2021384600F050FBFEBD00003D
:100710000004004810B50246536900200B423ED049
:10072000FF2401340B1BA14244D012DC082937D02E
:1007300007DC01292CD002292DD004292FD1D06823
:1007400036E010292ED020292FD0402927D110693A
:100750001CE07F2109025C1A8B4233D00DDCFF3B89
:100760005B1E2AD0FF3BFF3B9B1E29D00121890243
:100770008B4214D1906970210FE00121C903611AE5
:1007800015D001231B04994209D15068102104E0BF
:1007900090680E4901E0D06805E000F0F3F910BD63
:1007A000D068F3E710690321F7E7106900E05068AB
:1007B0000821F2E790690121EFE790690221ECE757
:1007C000906900E050680421E7E7000001010100A2
:1007D000002A426901D00A4300E08A43426170471F
:1007E00010B5036800220224A343036003680124B8
:1007F00023430360314B00E0521C4468E40701D1FD
:100800009A42F9D14268D2073ED08C798022012CDD
:1008100004683BD094430460CC794022012C0468E6
:1008200036D0944304600C7A2022012C046831D025
:10083000944304604C7A1022012C04682CD0944319
:1008400004608C7A0822012C046827D09443046049
:10085000CC7A0422012C046822D0944304608A7864
:10086000CC789207240622430C79240422434C7945
:10087000098824052243491E0A43C26101684908C8
:100880004900016000210EE0002010BD1443C2E7C2
:100890001443C7E71443CCE71443D1E71443D6E726
:1008A0001443DBE7491C4268D20701D09942F9D1D1
:1008B0004068C007E8D1012010BD0000FFFFFF0025
:1008C0000B0130B51B18FF3381331C6B04252C4002
:1008D00014721C6B29D0E40854601C6B02252C4058
:1008E00054725C6B2407240F94725C6B240AD474DA
:1008F0009C6BD4729C6B240A14739C6B240C5473F1
:100900009C6B240E9473DC6BD473DC6B240A14741C
:10091000DC6B240C5474DB6B1B0E937420220029B7
:1009200006D001691143016130BD640D1460D4E744
:10093000C1681143C16030BDF0B585B06A46002181
:100940002748FFF7BDFF27490198884245D1264C2B
:100950002078002841D16078244D6F46002803D0CC
:100960000020BA7A217928E0B97A38460A30085C42
:10097000C00932D0012060700020207104E03A18D4
:10098000D27A2A54401CC0B28142F8D868782A78BA
:10099000000280182061A878A0702879EA78000207
:1009A0008018A0816879E070491E21710AE03B1827
:1009B0000E18DB7A401CAB55C0B28242F7D8491EF4
:1009C000501820716078012807D120794021285CD7
:1009D0000840402801D10120207005B0F0BD000082
:1009E00000640040E416E40000000020380200200B
:1009F00070B5104D104CA978A170A9892346D97003
:100A0000090A1971012219464A7188710521A01C31
:100A100000F07CF80948018869612170080A60705B
:100A20000721204600F0EAFC00F09EFC044900206B
:100A3000088070BD000000207800002054000020D5
:100A40001C00002000218171C1710172417281720C
:100A5000C1728170C17003210171022141710121B4
:100A60000180704730B50246936800205B0108D4CE
:100A70009068000101D5012003E09068C0003AD5DC
:100A8000022003019A18FF3281321368DB07DB0F63
:100A900013600B7A002B30D014684D681C434B7ADE
:100AA000ED002B431C4314608B7A1B071B0F8B72CA
:100AB00053681B091B01536053688C7A23435360AE
:100AC0008C7BCB7A240623434C7B0D7B24042D02A4
:100AD0002C43234393608C7CCB7B240623434C7CA8
:100AE000097C240409020C432343D36011680123C9
:100AF0001943116030BD042030BD13684C7A234384
:100B00000C88640523431360CEE7000000B5002283
:100B1000024BD2439A8100F01BF800BD4800002030
:100B200010B5094A00029189084B48409081002085
:100B300091890C0402D54900594000E04900401C4D
:100B400091810828F4D310BD480000202110000036
:100B500030B50C46054603E028786D1CFFF7E0FF32
:100B60002046641EA4B20028F6D130BD10B5022183
:100B70000348FFF7CFFD002801D0FFF7DDFE10BDD1
:100B800000640040024600200A4200D00120704765
:100B90007047704770470000F0B50B2706463F04CA
:100BA000384600F071F804280FD1084C206902255E
:100BB000284320616661206940210843206138464E
:100BC00000F062F82169A9432161F0BD00200240D4
:100BD00008490420CA68D20701D001207047CA68BA
:100BE000D20601D502207047C9684907FBD503200A
:100BF0007047000000200240024801698022114332
:100C00000161704700200240F8B5064600200B271E
:100C10003F0400900D46384600F036F8042815D100
:100C20000B4C20690121084320613580384600F0D3
:100C30002BF8042806D1B61C290C009631803846C2
:100C400000F022F82169490849002161F8BD00003F
:100C500000200240034A116849084900014311601D
:100C6000704700000020024004480169090603D5CE
:100C70000349416003494160704700000020024081
:100C800023016745AB89EFCD00B50346FFF7A0FF11
:100C900002E0FFF79DFF5B1E012803D0002B00D16F
:100CA000052000BD002BF4D1FAE70000092110B5A2
:100CB000C906884202D101214C0404E0124988424D
:100CC00009D101210402204600F0DCF80021204671
:100CD00000F0D8F810BD0D49884202D1012104026C
:100CE000F1E70B49884202D101210C05EBE70949E4
:100CF000884202D101214402E5E707498842E9D14F
:100D000001218C05DFE700000004004800080048CE
:100D1000000C00480010004800140048F0B5002204
:100D2000032501230C6893401C409C422AD10C7976
:100D3000012C01D0022C12D1876854002E46A64007
:100D4000B74387604E79A6408468264386608488CE
:100D50009C43848084888B7993401C4384800668FC
:100D600053002C469C40A64306600E7907689E40BF
:100D70003E430660C668A643C660CC799C40C36803
:100D80001C43C460521C102ACBD3F0BD4B07DB0EB2
:100D90009A40C90810B589000818016A0F249C40C0
:100DA000A1430162016A1143016210BD01857047D0
:100DB00081617047FEE7000070B5134A137809247B
:100DC00012491348E406134D012B11D15378012B1E
:100DD0000CD001235370FFF7EBFF0C212046FFF7E7
:100DE000E7FF02212846FFF7E3FF70BD00235370A1
:100DF000FFF7DCFF0C212046FFF7D8FF0221284631
:100E0000FFF7D4FF70BD00001800002007040000A9
:100E100000040048001400487047000030B5827894
:100E200001240178002A15D08B080E4A9B009A18DD
:100E300013688907C90EFF258D40AB434578AD0780
:100E40002D0E8D401D4315600078C006C00E8440F5
:100E5000054804E0C806C00E8440034880300460A2
:100E600030BD000000E400E000E100E0044A002999
:100E7000516901D0014300E0814351617047000096
:100E800000100240044A0029916A01D0014300E0A9
:100E9000814391627047000000100240044A00291B
:100EA000D16901D0014300E08143D1617047000066
:100EB00000100240044A0029116901D0014300E0FA
:100EC000814311617047000000100240044A00296C
:100ED000916901D0014300E08143916170470000B6
:100EE00000100240044A0029D16801D0014300E00B
:100EF0008143D1607047000000100240F8B5564EA3
:100F00000446706800210C22544D104005D004287E
:100F100003D0082803D00C281AD025601AE0716885
:100F2000706803228902D2030F0F1040BF1C0028F3
:100F30000AD0F06A0107090F2846491CFFF757F944
:100F400078430146216005E0454839464143F9E7C9
:100F5000444820607068444F0006000F3B5C2068E6
:100F60000246DA40626073685B055B0FFB5CDA4047
:100F7000A260336BDB0501D43C4B05E073685B0476
:100F800001D4530800E09308E360336B5F06384BED
:100F900003D4374F1237276100E02361376BFF0618
:100FA00001D4656100E06061376BBF070ED0376B1D
:100FB000BF07BF0F012F0BD0376BBF07BF0F022F2B
:100FC00008D0376BFF43BF0706D006E0A26104E0FC
:100FD000A06102E0A36100E0A561376BBF03BF0F12
:100FE0000FD0376BBF03BF0F012F0CD0376BBF0380
:100FF000BF0F022F09D0376BBF03BF0F032F06D0DF
:1010000006E0E26104E0E06102E0E36100E0E56146
:10101000376B3F03BF0F0FD0326B1203920F012AC1
:101020000CD0306B0003800F022809D0306B000316
:10103000800F032806D006E0226204E0206202E06E
:10104000236200E02562306B000602D4054860622E
:10105000F8BD6162F8BD00000010024000127A0085
:1010600000093D00006CDC0268000020809FD50074
:1010700000800000034A5168F02399430143516006
:101080007047000000100240034A516807231B020A
:101090009943014351607047001002400122054905
:1010A00012060028086801D0104300E09043086051
:1010B000704700000010024010B5054A53687B24B9
:1010C000E403A3435360536808430343536010BDD4
:1010D00000100240034A51688908890001435160A9
:1010E0007047000000100240008870470CB51E4891
:1010F000016801221143016041681C4B19404160A5
:1011000001681B4B19400160016893049943016019
:1011100041683F231B0499434160C16A09090901E1
:10112000C162016BFF23543399430163016B0323B5
:1011300019430163416B9143416300218160009138
:101140000191016811430160022105221203036825
:101150000B400193009B5B1C0093019B002B02D171
:10116000009B9342F3D10CBD001002400CB8FF0865
:10117000FFFFF6FE7047000010B50A4C0121204623
:1011800000F08AF800280BD00121204600F010F86A
:1011900005490888401C088004480188491C0180D2
:1011A00010BD0000000400401C0000201A000020B8
:1011B000C943018270470029018802D001221143EE
:1011C00001E0490849000180704700002A4910B534
:1011D000884202D10121C4143AE0012189078842E2
:1011E00006D101210846FFF765FE0021012008E035
:1011F0002249884208D101210220FFF75BFE00212D
:101200000220FFF757FE10BD1D49884206D101217B
:101210001020FFF74FFE00211020F2E71949884205
:1012200006D101212020FFF745FE00212020E8E71C
:101230001549884207D1841501212046FFF73AFE5F
:1012400000212046DDE71149884209D101210C0423
:101250002046FFF747FE00212046FFF743FE10BD62
:101260000B49884202D101214C04F1E70949884227
:10127000F5D101218C04EBE7002C01400004004073
:1012800000100040001400400020004000400140D9
:1012900000440140004801400246138A0020928920
:1012A0000B400A40002B02D0002A00D001207047DA
:1012B000002A828901D00A4300E08A438281704774
:1012C00010B50288144B984206D00124A407A0420E
:1012D00002D0124CA04203D17024A2434C88224376
:1012E0000F4CA04203D00F4C22400C8922430280B5
:1012F0004A68C2620A880285984208D00A4A904227
:1013000005D00A4A904202D0094A904201D1897A16
:1013100001860121818210BD002C014000040040A3
:1013200000100040FFFC000000400140004401406C
:10133000004801403EB50A480190002069460880F7
:101340000881084C48802046FFF7BAFF0122114669
:101350002046FFF7ADFF01212046FFF72CFF3EBDE1
:1013600080BB000000040040F8B51F4CE07A012863
:1013700039D1607A01278446002814D00020A0715A
:101380001A4AA57A00201A4B217A16185B5C491C70
:10139000C9B2401CF3722172C0B2A94205D3E771F1
:1013A0000021E17203E0A771EAE70728EBD3A179F6
:1013B000E3794900C91863794900C9184B016146AE
:1013C00059181318D972401C9072042010720948E1
:1013D000506006490848FFF745FB607A401C607280
:1013E000607987436771F8BD000000201803002072
:1013F0005801002016E416000064004030B5E029D2
:1014000014D80B4BDA7A002AFCD19972094C03E00C
:10141000855CA554521CD2B28A42F9D3002058727E
:10142000587101219971D8711872D97230BD0000BC
:101430000000002058010020F8B5434C207A434EAC
:10144000002500281DD0424F3046394600F0ACF947
:10145000002816D03946304600F081F8A07A617A2B
:10146000884207D12572A57200223946304600F025
:10147000B7F906E03749095C401CA072304600F01D
:1014800026FA3549304600F08FF9002814D030464E
:1014900000F019FAC7B2E7722178552001290AD065
:1014A0002C4BA1780122E033E02906D9A570E07029
:1014B000257065700BE0E070F8BD6678002E06D0F0
:1014C0005F54491CC8B2A070042823D02CE0E178F6
:1014D000AA26B94206D0A570E070552FECD11F7036
:1014E000A2700FE0A1785F54491CC9B2A1700B0033
:1014F00000F098FA070E08060608050A0E00DAE75B
:10150000E570F8BDE670F8BDE0706270A570F8BDDA
:10151000E070FBE799785E780902891921611978F2
:10152000217101290CD0657161798D1DA842EED120
:101530005818417900790902081860612270F8BDD5
:10154000D9786171F0E700004800002000380140C0
:10155000060106002C03002005010500704701620A
:1015600070470029016802D00122114301E04908B7
:101570004900016070470000254910B5884207D135
:1015800001218C032046FFF7ADFC0021204627E017
:101590002049884202D101214C0404E01E498842BE
:1015A00009D101218C042046FFF784FC002120464C
:1015B000FFF780FC10BD1949884202D10121CC04FB
:1015C000F1E71749884202D101210C05EBE71549E3
:1015D000884208D101212020FFF784FC002120202F
:1015E000FFF780FC10BD1049884206D10121402040
:1015F000FFF778FC00214020F2E70C498842F1D146
:1016000001218020FFF76EFC00218020E8E7000028
:10161000003801400044004000480040004C0040B9
:10162000005000400014014000180140001C01401F
:10163000F8B556480024017801297DD1054669791D
:101640005348091DFFF762FAA889A86169698142B8
:1016500073D14F4988784A780002CD7880180121EB
:1016600080B2C903884201D1002083E04949884201
:101670002BD100214848FFF79EFD484F00253E46EC
:10168000FFF7F2FA3046FFF787FA0090FFF7B4FA57
:101690000098042801D1641CE4B2012080026D1C72
:1016A0003618EDB2402DEBD301213B48FFF783FD07
:1016B000402C02D03548C7615BE0002000F00CF9F7
:1016C00032480121C761C17156E03249491C884244
:1016D0000BD1002000F000F92C4901208871002076
:1016E000C8710A2000F0ABF946E02D4940182D4999
:1016F00088423ED800212848FFF75DFDA8080090E9
:1017000022480025C6691FE02148A9000918C879A8
:101710008A79000280184A7900028018097900024B
:101720004718FFF7A1FA39463046FFF76DFA07462A
:10173000FFF762FA241D01E025E025E0361DE4B242
:10174000042F06D16D1CEDB200988542DCD3042F26
:1017500003D0FF2000F0C0F806E0002000F0BCF845
:101760000A48C1690919C16101210B48FFF723FD2E
:1017700002E0FF2000F0B0F80021044855228170FB
:10178000C27001704170F8BD5A20F3E74800002094
:101790000C0400200180000000040040004000080C
:1017A000FF6FFFFFFE0F000030B50A04130E012586
:1017B0002A4600248A40012B0ED0022B0ED08368CB
:1017C000090C1340C0698D402840002B02D000282E
:1017D00000D00124204630BD0368F1E74368EFE7FD
:1017E00010B50B041C0E01238B40022C02D0032CDD
:1017F00002D002E0001D00E008300168002A01D09C
:10180000194300E09943016010BD000030B5044663
:1018100000688BB00D4640084000206060680321DE
:1018200009038843A9680143616020681C49EA688C
:101830000840696811432A69024311432160A06886
:1018400003210902884369690143A1606846FFF7E3
:1018500055FB1448844201D106980AE0124884429C
:1018600001D1079805E01148844201D1089800E0B1
:10187000029821680904296800D54000FEF7B7FCEA
:101880002A6852088A4200D8401C2168090404D5FD
:101890000107074A490F10400843A0810BB030BD33
:1018A000F3E9FFFF003801400044004000480040D9
:1018B000F0FF0000826801231B039A438260826864
:1018C0000A4382607047808CC005C00D7047C9050F
:1018D000C90D01857047000070B5124C55250346AF
:1018E0002570AA2161700020A070E07021710E485F
:1018F00065710079A0710C480122008AE071000A2C
:1019000020726272A3720521A01DFFF7FFF806483E
:101910000D218089E072000A2073204600F006F84D
:1019200070BD0000EC04002048000020F8B5124C07
:101930000546207A0028FCD1617200220F4803E09E
:10194000AB5C8354521CD2B28A42F9D30C4E0D4F79
:1019500031463846FFF703FEA07A295C401CA0728E
:101960003846FFF7B4FF0120207202463146384660
:10197000FFF736FFF8BD0000480000202C030020D0
:10198000060106000038014070B509210646CD0663
:1019900088B001222846FFF7F9F901220A212846DA
:1019A000FFF7F4F903204002069002206946087709
:1019B0000320487700248C77CC7706A92846FFF7C8
:1019C000ADF900960C20144E651E0490019402940B
:1019D0000394294605943046FFF7C1FD6946304619
:1019E000FFF714FF01220D493046FFF7F9FEB1144D
:1019F0003046FFF75FFF29463046FFF7B0FD012173
:101A00003046FFF7AEFD064855218470C170047062
:101A1000447008B070BD00000038014005010500A9
:101A20004800002030B47446641E2578641CAB4224
:101A300000D21D46635D5B00E31830BC18474B22A3
:101A4000920106E00021491C89B29142FBD3401E5D
:101A500080B20028F6D1704708B500F0C1F9012026
:101A6000FFF7F8F800F00CF94B20C001FFF78CFFEE
:101A7000FFF760FCFEF79EFC10206946087002200C
:101A8000487001248C706846FFF7C8F91B2069462E
:101A900008704C708C706846FFF7C0F91E206946CC
:101AA0000870002048708C706846FFF7B7F9634FE4
:101AB00007213846FFF77CF909200C21C006FFF703
:101AC00077F902215E48FFF773F95E480470FF2042
:101AD000F530FFF7B4FF09215B48FFF727FF6420CB
:101AE000FFF7ADFF09215848FFF720FF6420FFF7FB
:101AF000A6FF55480B210A30FFF718FF6420FFF7B7
:101B00009EFF51480B210A30FFF710FF6420FFF7BA
:101B100096FFE1204002FFF737FF4B4C103C4B4D46
:101B200000212846FFF747FB6068FFF7DDFA608079
:101B300001212846FFF73FFB61884548814229D1B2
:101B4000444D454928680840E903884222D143486A
:101B5000FEF766FC4248FFF70FFD3C48FFF736FBF7
:101B60000920C006FFF7A2F83846FFF79FF83D4866
:101B7000FFF79CF83C48FFF799F83C48FFF796F8C8
:101B80002F48FFF793F86868A060E060296881F348
:101B900008888047364E00252078002818D101217A
:101BA00089023846FFF702F907213846FFF700F9A6
:101BB00009200C21C006FFF7FBF802212048FFF79F
:101BC000F7F831882B48814202D3012020703580FC
:101BD000FFF72EFD28480188002902D00580FFF775
:101BE000C3FB3188FF202D30814205D320780028A7
:101BF00002D03580FFF7E0F8FEF71EFC1F480078A2
:101C00000128C9D1114E00213046FFF7D4FAFFF761
:101C10002BF86068FEF7C0FFFEF7EEFFFFF724F831
:101C20000B496068FEF7F0FFFEF7E6FF0121304642
:101C3000FFF7C1FA1148057071E700000004004881
:101C4000001400481800002030000020000400406C
:101C5000AA550000004000080000FE2F006400406C
:101C60000038014000080048000C004800100048FF
:101C70001A000020701700001C0000204E000020F9
:101C8000FEB50927FF063846FFF710F84B48FFF767
:101C90000DF84B48FFF70AF84A48FFF707F84A489B
:101CA000FFF704F84948FFF701F80124684604717A
:101CB00000268671464800906846C6710325457126
:101CC00069463846FFF72AF8424800906846047192
:101CD00045718471C47169463848FFF71FF83E4961
:101CE0003648FFF763F8E1023448FFF75FF80C204D
:101CF000009069463846FFF711F80C213846FFF787
:101D000057F80220009069463048FFF707F8022193
:101D10002E48FFF74DF810200090684686716946FE
:101D20002648FEF7FBFF10212448FFF741F8042165
:101D30003846FFF73BF808213846FFF737F81021FF
:101D40003846FFF733F840213846FFF72FF8802157
:101D50003846FFF72BF8E1033846FFF727F81F480E
:101D6000009069461548FEF7D9FF01211348FFF797
:101D70001FF802211148FFF71BF804210F48FFF755
:101D800015F808210D48FFF711F820210B48FFF73F
:101D90000DF8640369460A480094FEF7BFFF214628
:101DA0000748FFF703F8694608480095FEF7B6FFB5
:101DB00003210648FEF7FAFFFEBD000000040048BC
:101DC00000080048000C00480010004800140048BB
:101DD000FD9F0000070C000007040000FFF000005A
:101DE00010B5FFF783F90020FFF758F90124240507
:101DF00021466011FFF760F90220FFF76BF9002020
:101E0000FFF738F90020FFF73FF90120FFF746F907
:101E100001214804FFF72AF801218804FFF726F87A
:101E20000121C804FFF722F801212046FFF71EF820
:101E300001214805FFF71AF801218805FFF716F878
:101E400001210846FFF742F801218803FFF73EF819
:101E500001210220FFF722F801214806FFF71EF8B2
:101E600010BD0000841E0008000000207800000063
:101E700004010008FC1E000878000020B80B0000D8
:101E80002001000800000000000000000000000029
:101E90000000000000000000000000000000000042
:101EA000000000000000000000FC0108000000002D
:101EB0000000000054544D3A4250532D3400545405
:101EC0004D3A5253542D5359530000000000005511
:101ED0000000000000000000000000000000000002
:101EE00000000000000000000000000000000000F2
:0C1EF000010203040102030406070809B4
:04000005080000C12E
:00000001FF
